:020000040800F2
:1000000008060020C1010008FF220008A113000813
:10001000FD220008F302000825320008000000005D
:10002000000000000000000000000000752C000827
:100030004504000800000000BD230008792D0008D9
:10004000DB010008DB010008DB010008DB01000820
:10005000DB010008DB010008DB010008DB01000810
:10006000DB010008DB010008DB010008DB01000800
:10007000DB010008DB010008DB010008DB010008F0
:10008000DB010008DB010008DB010008DB010008E0
:10009000DB010008DB010008DB010008DB010008D0
:1000A000DB010008DB010008DB010008DB010008C0
:1000B000DB010008DB010008DB010008DB010008B0
:1000C000DB010008DB010008DB010008DB010008A0
:1000D000DB010008DB010008DB010008DB01000890
:1000E000610A0008DB010008DB010008DB010008F1
:1000F000DB010008DB010008DB010008DB01000870
:10010000DB010008DB010008DB010008DB0100085F
:10011000DB010008DB010008DB010008DB0100084F
:10012000DB010008DB010008DB010008DB0100083F
:10013000DB010008DB010008DB010008DB0100082F
:10014000DB010008DB010008DB010008DB0100081F
:10015000DB010008DB010008DB010008DB0100080F
:10016000DB010008DB010008DB010008DB010008FF
:10017000DB010008DB010008DB010008DB010008EF
:10018000DB010008DB010008DB010008DB010008DF
:10019000DB010008DB010008DB010008DB010008CF
:1001A000DB010008DB010008DB010008DFF80CD0F0
:1001B00000F06EF800480047A1380008080600204B
:1001C0000648804706480047FEE7FEE7FEE7FEE7F1
:1001D000FEE7FEE7FEE7FEE7FEE7FEE77D2D00080F
:1001E000AD01000840EA01039B0703D009E008C9FC
:1001F000121F08C0042AFAD203E011F8013B00F8EC
:10020000013B521EF9D27047D2B201E000F8012B37
:10021000491EFBD270470022F6E710B513460A4686
:1002200004461946FFF7F0FF204610BD2DE9F05FA8
:100230000546002092469B46884606468146402455
:100240001BE0284641464746224600F042F8534606
:100250005A46C01A914110D311461846224600F062
:1002600029F82D1A67EB01084F462246012000218C
:1002700000F020F817EB00094E41201EA4F1010404
:10028000DFDC484631462A464346BDE8F09F000081
:10029000064C074D06E0E06840F0010394E80700D3
:1002A00098471034AC42F6D3FFF784FFA04B000808
:1002B000C04B0008202A04DB203A00FA02F100209B
:1002C00070479140C2F1200320FA03F31943904094
:1002D0007047202A04DB203A21FA02F000217047FF
:1002E00021FA02F3D040C2F120029140084319469E
:1002F0007047FEE710B54FF6FF70014601F0C0FEF3
:100300000021BDE810404FF4F07340F26A22B5209E
:1003100001F03ABB017A0448017100884FF6FF7181
:1003200080B201F0ADBE00004800002010B5074CBF
:100330008068206080B24FF6FF7101F0A1FE207945
:10034000082801D10020207110BD000048000020C5
:1003500010B50121CC05204602F058F82046BDE832
:100360001040002102F052B801460020024A5268B3
:100370000A4200D00120704700B0024030B500248E
:100380002A4B19682A4A11401960196802681143FA
:100390001960596B21F007015963596B4268114389
:1003A00059634168002928D001292DD0022930D075
:1003B000032933D0C1680A01016909024469240391
:1003C0008568214315430D43996B0D439D638169F6
:1003D000D963196C6FF30D011964196CC26911436B
:1003E0001964818C09045A6C02F040425A645A6CB8
:1003F000006A02430A435A6430BDC1680A02018A96
:100400000904047D2406DBE7C1680A02018A0904A5
:10041000D6E7C1684A010169C902D1E7C1684A014A
:10042000016989024469E403CAE7000000B00240A0
:10043000FCE0FCFF0248016841F0010101607047E7
:1004400000B002407047000070B586B00121084638
:1004500001F0CEFF0121102002F002F81E4E07220B
:100460000A21304600F054FC07220921304600F0F2
:100470004FFC00248DF8164001208DF8170002254E
:100480008DF81450410204918DF8155004A930469E
:1004900000F000FC8DF814506802049004A9304666
:1004A00000F0F8FB4FF4E1300090ADF80440ADF8F7
:1004B0000640ADF80840ADF80C400C20ADF80A003D
:1004C000064C6946204602F04BFE0121204602F010
:1004D00033FE06B070BD0000000002400010014075
:1004E00001B502E00098401E009000980028F9D164
:1004F00008BD01B502E00098401E00900098002859
:10050000F9D108BD2DE9F04104464FF47846207B2F
:100510004FF6FF75002834D02946284601F0B0FD7B
:10052000E0886188A288401A83B22088121A92B2A9
:1005300001F02AFA2946304601F0A2FD244801F0D4
:10054000A5FDA088218823A2401A303800EBD07086
:1005500001EB600081B26088193080B201F0E6F8EA
:1005600029464FF4047001F08BFDE0886188A28871
:10057000401A83B22088BDE8F041121A92B201F00D
:1005800083BA4DF6FB672946384601F079FDE088CD
:100590006188A288401A83B22088121A92B201F0B0
:1005A000F3F93946304601F06BFD094801F06EFD64
:1005B000A088218807A2401A303800EBD07001EBE8
:1005C000600081B26088193080B201F0AFF8C7E7EF
:1005D00020000020C7E5C6C10000000070B5044639
:1005E0004FF6FF75207B00281ED02846014601F0FB
:1005F00047FDE0886188A288401A83B22088121AD9
:1006000092B201F0C1F929464FF4047001F038FDAF
:10061000E0886188A288401A83B22088BDE87040D3
:10062000121A92B201F030BA2089294680B201F044
:1006300027FDE0886188A288401A83B22088121AB8
:1006400092B201F0A1F9DEE7F8B504464FF4047761
:10065000207B4DF6FB654FF6FF7600282BD0314608
:10066000304601F00DFDE0886188A288401A83B20F
:100670002088121A92B201F087F93146384601F00B
:10068000FFFCE0886188A288401A83B22088121A91
:1006900092B201F0F9F937463946002001F0F0FC3A
:1006A000A1680A2609294ED2DFE801F0223A4E62FB
:1006B000768A9EB1E5003146284601F0E1FCE088EB
:1006C0006188A288401A83B22088121A92B201F07F
:1006D0005BF92946384601F0D3FCE0886188A2889E
:1006E000401A83B22088121A92B201F0CDF9D2E7F3
:1006F0003946002001F0C4FCE1886088091A01EB4A
:10070000D17100EB610083B281B2A088143882B24B
:10071000208801B01430BDE8F04080B201F0D6B9B5
:1007200001200090E1886088091A01EBD17100EB8B
:10073000610083B281B2A088143882B2208814305C
:1007400080B201F01BFAF8BD02200090E0886188B9
:10075000401A00EBD07001EB600083B281B2A08838
:10076000143882B22088143080B201F007FAF8BD44
:1007700003200090E1886088091A01EBD17100EB39
:10078000610083B281B2A088143882B2208814300C
:1007900080B201F0F3F9F8BD04200090E088618890
:1007A000401A00EBD07001EB600083B281B2A088E8
:1007B000143882B22088143080B201F0DFF9F8BD1D
:1007C00008200090E1886088091A01EBD17100EBE4
:1007D000610083B281B2A088143882B220881430BC
:1007E00080B201F0CBF9F8BD0096E0886188401A2C
:1007F00000EBD07001EB600083B281B2A0881438A6
:1008000082B22088143080B201F0B8F9F8BD3946C0
:10081000002001F035FCE0886188401A00EBD070C0
:1008200001EB600083B281B2A088401F82B22088B1
:10083000401D80B201F04AF9002513E0E28861888A
:100840000523521A02EBD27201EB620105EB85021D
:1008500003EB4202104489B280B2032201F046F851
:100860006D1CADB2A1882088091A0A3991FBF6F1F6
:10087000A942E3DCF8BD0021384601F001FCE08824
:1008800061882823401A463800EBD07001EB6000E5
:1008900086B2A08821881A46401A283800EBD0700A
:1008A00001EB600080B2314601F06EF829464FF44A
:1008B000784001F0E5FB0A4801F0E8FBA0882188B8
:1008C00008A2401A303800EBD07001EB600081B212
:1008D000E088BDE8F8401E3880B200F027BF000075
:1008E00020000020CFF0C6A400000000F8B5144698
:1008F000069A1D46B52C2CDDB5282ADD1679E21E98
:10090000C31E092E25D2DFE806F005162534415016
:1009100061728B00002905DA29462046BDE8F840BF
:1009200001F04EBD01B0ABB2A2B2BDE8F04089B259
:1009300080B201F0CBB8621EB52A0ADB421EB52A8E
:1009400007DB01220092ABB2A2B289B280B201F001
:1009500015F9F8BDA21EB52AFBDB821EB52AF8DB0D
:1009600002220092ABB2A2B289B280B201F006F9C3
:10097000F8BDB52AFCDBB52BFADB03220092ABB243
:10098000A2B289B280B201F0F9F8F8BD221FB52AEF
:10099000FBDB021FB52AF8DB04220092ABB2A2B245
:1009A00089B280B201F0EAF8F8BDA4F10802B52AD4
:1009B000FADBA0F10802B52AF6DB08220092ABB2FE
:1009C000A2B289B280B201F0D9F8F8BDA4F10A024E
:1009D000B52AFADBA0F10A02B52AF6DB0A22009258
:1009E000ABB2A2B289B280B201F0C8F8F8BDB52AA4
:1009F000FCDBB52BFADB002905DA29462046BDE8E9
:100A0000F84001F0DDBCABB2A2B289B280B201F015
:100A10005DF8A9B2A0B2BDE8F840032200F066BFBD
:100A2000A4F114000646B528E0DB1434B4F5487F81
:100A3000DCDC05F11400B0F5F07FD7DC142DD5D443
:100A40004FF6FF70014601F01BFB143D01B0A9B247
:100A5000B0B2BDE8F04028231A4600F095BF000070
:100A600010B54FF40054204600F018F800280BD0C1
:100A70000648016881F40061016000F025FB204612
:100A8000BDE8104000F004B810BD0000141C024086
:100A90000149086070470000143C014001460020F5
:100AA000024A12680A4200D001207047143C0140FB
:100AB00030B51B4A83790168002B2AD013688B4319
:100AC0001360111D0B680468A3430B600179114486
:100AD0000B68046823430B60114C083421680368D9
:100AE00099432160231D19680568A943196041795C
:100AF000102905D011440A68006802430A6030BD1D
:100B00002168026811432160196800680143196077
:100B100030BD0079104402688A43026030BD000095
:100B2000003C014000224FF0204310280AD0B0F5CD
:100B3000807F09D0B0F5805F09D0D3F85801814398
:100B400009D107E0586EFAE7D3F88400F7E7D3F845
:100B5000A400F4E70122104670470000D0E900121B
:100B600011438268C068521E520142EA402001438C
:100B70000148016070470000500100A070B5046892
:100B8000A100A1F1C041D1F84011CE0BF603D0E98C
:100B900001121143D0E903231A4311434269C36987
:100BA00011438269056A11431943426A294311437B
:100BB00031434FF02046002C3CD0D6F840416FF333
:100BC0000E042B4322431343C6F8403102689200BF
:100BD000A2F1C042C2F84011016871B38900A1F1CD
:100BE000C041D1F8481101F07043816A0A684C682D
:100BF000521E641E42EA04148A68521E44EA022409
:100C00000A8A521E44EA02421A43D6F8483103F0D7
:100C10007043CC68898A641E2403491E44EA01514A
:100C20001943C6F8481100688000A0F1C040C0F820
:100C3000482170BDC6F84011CEE7FFE7D6F848114D
:100C400001F07041806A02684368521E5B1E42EAEE
:100C500003138268521E43EA0223C268521E43EA0B
:100C60000233028A521E43EA0243828A007E521EE7
:100C700043EA0252401E42EA00600843C6F84801B7
:100C800070BD000002490A6842EA400008607047EF
:100C9000540100A02DE9F041002201274FF0030C80
:100CA00007FA02F50B682B40AB422CD106685300C3
:100CB0000CFA03F4A64306600E79D0F800809E403B
:100CC00046EA080606600E79012E01D0022E12D1E6
:100CD0008668A64386604E79D0F808809E4046EA32
:100CE000080686604668AE43466045688E79964041
:100CF000B6B235434560C568A543C560CC799C4014
:100D0000C3681C43C460521C102AC9D3BDE8F081DB
:100D100010B54B07DB0E9A40C90800EB8100016A51
:100D20000F249C40A1430162016A1143016210BD7E
:100D30000246002012690A4200D001207047418318
:100D400070470183704700007CB50020009001903F
:100D500080258DF8005051208DF801000822694649
:100D6000BA2000F049F8002801DA00207CBD9DF887
:100D700002009DF8031000EB012086B29DF80400EC
:100D80009DF8051000EB012084B28DF8005056202C
:100D90008DF8010003226946BA2000F02DF80028E2
:100DA00001DA00207CBD9DF8020000F0030322461A
:100DB000314602A002F038FA01207CBD3C3C2D47B0
:100DC00054502D494E464F2D3E3E20585F4D4158C0
:100DD000203D2025642C20595F4D4158203D202581
:100DE000642C2054524947474552203D20307825F5
:100DF0003032780A00000000F0B587B00E46174682
:100E00004FF0FF3500240021ADF806108DF80400E6
:100E10000221ADF8081003960121ADF812108DF8EB
:100E20001000B81EADF81400B01C069007E00221B7
:100E300001A800F0BEFB0546022D02D0641C052C63
:100E4000F5DB052C08DB707831782B4640EA012170
:100E5000BA1E034802F0E8F907B02846F0BD0000CA
:100E6000FC4A00087CB50E4841690069CDE90001E3
:100E70000024651E0DE008226946BA20FFF7BCFF7A
:100E800045B2002D01DD28467CBD214605A002F0BB
:100E9000CBF92046641CE4B20528ECD328467CBD7F
:100EA000E44A00083C3C2D4754502D4552524F52C5
:100EB0002D3E3E2047545020693263207465737480
:100EC000206661696C65642074696D652025642EF7
:100ED0000A000000FEB50E4617464FF0FF3500240D
:100EE0000021ADF802108DF80000ADF804700296F4
:100EF00007E00121684600F05CFB0546012D02D0A9
:100F0000641C052CF5DB052C08DB707831782B464A
:100F100040EA0121BA1E024802F086F92846FEBDC9
:100F20004C4B000810B500F03BFBFFF79BFF04465D
:100F3000002C04DA06A002F077F9204610BD00F07C
:100F40001DF800F099FAFFF7FFFE002010BD000029
:100F50003C3C2D4754502D4552524F522D3E3E2081
:100F600049324320636F6D6D756E69636174696F9B
:100F70006E204552524F52210A00000030B585B014
:100F80002C48C1688068CDE90301082203A9BA2072
:100F9000FFF732FF0446200005D527A002F044F9F0
:100FA000204605B030BD9DF811002E4DA0B19DF832
:100FB00012109DF81320CDE9012100909DF810300A
:100FC0009DF80F209DF80E1027A002F02DF99DF836
:100FD0000E0039281ED02BE09DF812009DF813104A
:100FE000CDE900109DF810309DF80F209DF80E10EF
:100FF00029A002F019F99DF80E00392818D19DF8A2
:101000000F00312814D19DF81000312810D1012093
:1010100028700DE09DF80F00312809D19DF81000CF
:10102000352805D19DF81100372801D100202870FE
:101030002046B6E7E44A00083C3C2D4754502D4575
:1010400052524F522D3E3E204754502072656164EB
:101050002076657273696F6E206661696C65640ADB
:10106000000000002A0000203C3C2D4754502D4930
:101070004E464F2D3E3E20494332205665727369DD
:101080006F6E3A2025632563256325635F25303223
:1010900078253032780A00003C3C2D4754502D49C9
:1010A0004E464F2D3E3E20494331205665727369AE
:1010B0006F6E3A202563256325635F2530327825DE
:1010C0003032780A0000000000F09AB82DE9FC41A7
:1010D00004460E461546CDE90053334622464FF4EA
:1010E0009E710EA002F0A0F8A9B2B0B201F074FE99
:1010F000174F16480090A7F10A082BB232B237F901
:10110000141038F914001D461646FFF7EFFB28F8B7
:10111000146027F81450BDE8FC8100003C3C2D47CA
:1011200054502D44454255472D3E3E205B25645D7D
:1011300049443A25642C20583A25642C20593A25F4
:10114000642C20573A25640A000000004800002063
:101150003E00002070B504460B4EA6F10A0536F895
:10116000141035F8140001F0BDFF4FF0FF3025F8E2
:10117000140026F814002246BDE870404FF4B47104
:1011800002A002F051B800003E0000203C3C2D4778
:1011900054502D44454255472D3E3E205B25645D0D
:1011A000546F7563682069645B2532645D207265E5
:1011B0006C65617365210A0070B505460C460F48E1
:1011C0000078002801D101F069FC220AE1B2A13ABD
:1011D000C2EB021000EB421001EB4001A13901EB20
:1011E000C1008101C81701EB5070C110482201F500
:1011F000AA01284601F02CFC002070BD2800002028
:101200002DE9F04F97B04CA00068169028210DF101
:101210002C090CA8FEF7FFFF484C20680B904FF0FC
:10122000BA0B00260C220BA95846FFF7E5FD014634
:10123000002905DA42A001F0F7FF17B0BDE8F08FF2
:101240009DF82E000028F8D0010669D500F00F05A2
:10125000052D65D8012D14D9242101AF381DFEF7C5
:10126000DAFF60680190681E022101EBC0020446AB
:1012700001A95846FFF7C0FDE200B91C0EA8FEF711
:10128000B1FFDFF8ECA00AF10408BAF80200A842A6
:1012900015D818E000246F1E0EE009EBC400C078DA
:1012A00000F00F0118F80600884207D0BC4201DBAD
:1012B000FFF750FF641CE4B2AC42EED3761CBAF8E0
:1012C00002008642E6DBDDB1002416E009EBC40033
:1012D000C17801F00F0608F804600179427941EA0B
:1012E00002218279C37942EA0322037A407A43EAEF
:1012F00000233046FFF7EAFE641CAC42E6DB0DE05B
:10130000BAF8020050B1002404E018F80400FFF716
:1013100021FF641CBAF802008442F6DBAAF80250EE
:10132000032216A95846FFF7D5FD002885DA11A03B
:1013300001F07AFF81E70000814E0000E44A0008D6
:101340003C3C2D4754502D4552524F522D3E3E208D
:10135000493243207472616E7366657220657272E1
:101360006F722E206572726E6F3A25640A200A0031
:101370002A0000203C3C2D4754502D494E464F2D0D
:101380003E3E2049324320777269746520656E6461
:101390005F636D64206572726F72210A0000000045
:1013A0004B2102A001F040FFFEE7000046696C659A
:1013B0003A2E2E5C2E2E5C557365725C73746D3301
:1013C00032663478785F69742E632C4C696E653AA6
:1013D000253033643A686172646661756C742065A7
:1013E00072720A002DE9FC410121880501F02AF8FA
:1013F0000121882000F0FCFF0121880301F030F872
:101400001020009001258DF8045002248DF805402D
:101410008DF8065000268DF80760154F694638464E
:10142000FFF738FC2021009169463846FFF732FC6F
:10143000A00200908DF804508DF805408DF80660EC
:101440008DF807400B4F69463846FFF723FC200311
:1014500000908DF804508DF805408DF806608DF8E9
:10146000074069463846FFF715FCBDE8FC810000DF
:10147000001C0240000C024030B585B04FF400550E
:10148000009500248DF8044002208DF805008DF8A9
:10149000074069461248FFF7FDFB0D21032001F0CC
:1014A000EBFB03958DF8104008208DF81100012406
:1014B0008DF8124003A8FFF7FBFA4FF4C06000F06C
:1014C00053FF28208DF808008DF809408DF80A4058
:1014D0008DF80B4002A800F013FF05B030BD0000EE
:1014E000000C024070B506460D46144602F088F91D
:1014F00046F0010002F058F902F0B2F988B102F0AA
:101500009BF9012070BD012C03D102F013F902F008
:1015100093F902F027F905F8010B641EA4B202F05A
:10152000E7F8002CEFD102F087F9002070BD000031
:101530002DE9FC474FF40056009601208DF8040079
:1015400002248DF8054000258DF806508DF80740DF
:10155000114F69463846FFF79DFB4FF4006841463E
:101560003846FFF7ECFBDFF834904846FEF7C1FF42
:1015700041463846FFF7E5FB4846FEF7BAFF0096BE
:101580008DF804508DF805408DF8075069463846AF
:10159000FFF780FBBDE8FC87000C0240FFFF0F0057
:1015A00010B5FFF71FFFFFF7C3FFBDE81040FFF7BF
:1015B00063BF70B505460E460024002014E004EB1E
:1015C000440005EB80039978C90706D09A8815F87E
:1015D00020009968FFF786FF05E01A7915F82000CA
:1015E000996800F008F8641C08B9B442E7D10028F3
:1015F00000D1204670BD2DE9F04180460E461546CB
:1016000002F01AF900244FF47A7702F0F9F8404614
:1016100002F0CAF802F024F918B1641CA4B2BC426A
:10162000F3D3BC4206D00BE0307802F0BDF802F0F4
:1016300017F920B102F000F90120BDE8F081761C15
:101640006D1EEDB2F0D202F0F7F80020F5E70000D1
:1016500070B58AB0C40A00F01F05C0F34516FEF746
:1016600077FE4FF4403000900220019003960295DF
:1016700004940F2005900D4C6068069000200790A0
:101680004FF4F07008904FF4487009906846FEF7E8
:1016900075FEFEF7CFFE0220FEF766FE0028FAD0A8
:1016A000208800F00BFD0AB070BD00001000002083
:1016B0002DE9F04393B04FF4C86300FB03F50C46EB
:1016C000114601A8FFF778FD0023174F0DF1040C18
:1016D000786803EB43011CF80120120261444E7844
:1016E000164336028A78324300213E88B7F80280DA
:1016F0005FEA022904D500EB440929F8056003E0FC
:1017000000EB440929F80580641C5200491CC9B249
:101710001829EDD304F542745B1CDBB2182BD8D327
:1017200013B0BDE8F0830000100000202DE9F04761
:1017300005460C461646DFF884904FF448774FF480
:10174000F07835E07E2A1AD8D9F80C008188214437
:10175000B94203D90024C18829448DB2C0882844E5
:10176000404501D9002400252146284600F028F8EC
:10177000D9F80C008088204484B2761C18E004F16B
:101780001800B84202D900241835ADB205F118008E
:10179000404501D9002400253088010201EB1020CA
:1017A00082B221462846FFF783FF1834A4B2B61C44
:1017B0003278002AC6D1BDE8F08700001000002072
:1017C00010B4203AD3B2054AD2681468D2885A437A
:1017D00004EB420210BC00F003B80000100000202F
:1017E0002DE9F04300254FF4C8635843DFF87890A3
:1017F000D9F804C0D9F80C7030E0002326E00C269C
:10180000B4FBF6F6F6004FF0800808FA06F832F856
:10181000156048FA03F818EA060F01D10C2C08D914
:101820004FF0010808FA03F816EA080F07D10C2C4C
:1018300005D90CEB4106B9F80240345204E00CEB38
:101840004106B9F800403452491C5B1CBC889C42DC
:10185000D5D8BB88C3F5487319446D1CFB88AB42CF
:10186000CBD8BDE8F0830000100000202DE9F04344
:1018700052420023022404EB42041B4D2F886E6861
:10188000CD1805EBC508A0EB020C08EB05150CEB19
:10189000451826F8187000EB020808EB451526F8E5
:1018A0001570CD1A05EBC50909EB051508EB4518B0
:1018B00026F818700CEB451526F8157025469D4244
:1018C00008DC5B1C04EB4304641CDA4202D1954241
:1018D00000DC0025954203DD521C04EB4204641C2D
:1018E000002ACDDDBDE8F083100000202DE9F74F80
:1018F0000746884602980321A1EB40060024029D7A
:101900004FF6FF7935E09DB109EA4502A8EB050ADB
:10191000381B93461FFA8AF180B2012300F074F855
:1019200038195A461FFA8AF180B2012300F06CF888
:101930009CB109EA4402A8EB040A781B93461FFAFB
:101940008AF180B2012300F05FF878195A461FFA35
:101950008AF180B2012300F057F8002E03DA06EB7B
:101960008406B61D04E0601B06EB80060A366D1E79
:10197000641CAC42C7D9029A03B041463846BDE860
:10198000F04FFFF773BF00002DE9F0478AB015460E
:101990009946DFF87080B8F80040E60A04F01F07A7
:1019A000C4F3451401EBC10202EB011100EB41103D
:1019B000D8F8041001EB400AFEF7CAFC4FF440309F
:1019C0000090022001900394029704960F20059046
:1019D000CDF818A0C5F548700790CDF8209009956E
:1019E0006846FEF7CBFCFEF725FD0220FEF7BCFCA7
:1019F0000028FAD0B8F8000000F060FB0AB0BDE89B
:101A0000F0870000100000202DE9F0438BB0144651
:101A1000984601EBC10202EB011100EB411119489C
:101A2000426802EB41050088C60A00F01F07C0F3B8
:101A30004519FEF78DFC4FF44030019002200290D2
:101A4000CDF81090039705960F200690079501207A
:101A5000B8F1000F11D040F21F31089109940A909B
:101A600001A8FEF78BFCFEF7E5FC0220FEF77CFCEC
:101A70000028FAD00BB0BDE8F0830021089109904E
:101A80000A94EDE7100000202DE9F04106460D46CE
:101A900017461C4600233A4629463046FFF7B4FF56
:101AA000281981B200233A463046FFF7ADFF0123E3
:101AB000224629463046FFF7A7FFF019224629465D
:101AC000BDE8F04180B20123FFF79EBF2DE9F84F3A
:101AD00084460F460026A2EB0C00002801DCACEB8C
:101AE000020000B2D91B002900DCF91A09B20FFA72
:101AF0008CF43DB24FF0FF3A624503D34FF001083A
:101B0000C14601E0D046D146BB4203D34FF0010AA3
:101B1000D34600E0D346884209DB4FF00008C346B5
:101B200000EBD072521013B20091074622E04FF042
:101B30000009CA4601EBD172521013B200900F4651
:101B400018E02946204600F03BFC0098184403B2F8
:101B5000BB4207DBD81B03B204EB080004B205EB61
:101B60000A0005B204EB090004B205EB0B0005B254
:101B7000761C36B2BE42E4DDBDE8F88F2DE9FE4F9B
:101B800084460C9F0E464FF00008A2EB0C00002884
:101B900001DCACEB020000B2991B002900DCF11A59
:101BA00009B20FFA8CF435B24FF0FF39624504D315
:101BB0004FF0010A4FF0010B01E0CA46CB46B34299
:101BC00003D301220292019203E0CDF80890CDF8F0
:101BD000049088420ADB4FF0000A0022019200EBD9
:101BE000D072521016B20091814635E04FF0000BD2
:101BF0000022029201EBD172521016B20090894677
:101C00002AE0E019B0F5487F22DAE01B00281FDD4A
:101C1000E819B0F5F07F1BDAE81B002818DDA9B23F
:101C2000A0B23A46FFF762FE0098304406B24E4535
:101C300008DBA6EB090006B204EB0A0004B2029826
:101C4000284405B204EB0B0004B20198284405B205
:101C500008F101080FFA88F8C845D2DDBDE8FE8F0B
:101C60002DE9FC5F012140F2FF1000F0C1FB4FF0B5
:101C70000408CDF8008002208DF805008DF80400DE
:101C800000208DF806008DF807006946AA48FFF786
:101C900001F80E220221A848FFF73AF84FF0080990
:101CA000CDF800906946A448FEF7F4FF0E22032108
:101CB000A148FFF72DF84FF4807ACDF800A06946CF
:101CC0009D48FEF7E7FF0E2208219B48FFF720F80A
:101CD0000124009469469948FEF7DCFF092200219F
:101CE0009648FFF715F84FF4006BCDF800B0694641
:101CF0009348FEF7CFFF0E220B219148FFF708F81B
:101D00002003009069468E48FEF7C4FF0E220C2186
:101D10008B48FEF7FDFF0220009069468748FEF7DA
:101D2000B9FF092201218548FEF7F2FF4025009501
:101D300069468448FEF7AEFF0E2206218148FEF771
:101D4000E7FF2020009069467F48FEF7A3FF0E22A0
:101D500005217D48FEF7DCFF009569467A48FEF7CD
:101D600099FF0E2206217848FEF7D2FF600300900B
:101D700069467148FEF78EFF0E220D216E48FEF770
:101D8000C7FFA602009669466E48FEF783FF092248
:101D90000A216C48FEF7BCFFE003009069466648E4
:101DA000FEF778FF0E220F216348FEF7B1FF009483
:101DB00069466648FEF76EFF0E2200216348FEF773
:101DC000A7FF8027009769466148FEF763FF0E2250
:101DD00007215F48FEF79CFFCDF8008069465B480D
:101DE000FEF758FF0E2202215848FEF791FF4FF0F0
:101DF0001008CDF8008069465348FEF74BFF0E22CD
:101E000004215148FEF784FF2003009069464D48A5
:101E1000FEF740FF0E220C214A48FEF779FF00959D
:101E20004C4D69462846FEF735FF0E22062128460E
:101E3000FEF76EFFCDF800B069464248FEF72AFF74
:101E40000E220B213F48FEF763FFCDF80080694664
:101E50003E48FEF71FFF0E2204213C48FEF758FFC4
:101E6000CDF8009069463648FEF714FF0E22032194
:101E70003348FEF74DFFCDF800A069462F48FEF726
:101E800009FF0E2208212D48FEF742FF4FF400798A
:101E9000CDF8009069462948FEF7FCFE0E22092184
:101EA0002648FEF735FF009769462648FEF7F2FE02
:101EB0000E2207212348FEF72BFF00966946234890
:101EC000FEF7E8FE0E220A212048FEF721FFCDF89A
:101ED000009069461D48FEF7DDFE0E2209211B48D1
:101EE000FEF716FF00961C4E69463046FEF7D2FEFE
:101EF0000E220A213046FEF70BFFCDF800800220AB
:101F00008DF805008DF8044000208DF806008DF84E
:101F1000074069462846FEF7BDFE009769462846F9
:101F2000FEF7B8FE10212846FEF70BFF8021284659
:101F3000FEF707FFBDE8FC9F001C024000040240C2
:101F40000000024000180240001002400020024041
:101F500000080240000C02400014024010B590B08E
:101F60000121880600F07CFA0121C80500F040FA42
:101F7000FFF776FE00F0CCFC002401940294039459
:101F800004940D940E940F9405220721FA2000F07A
:101F9000F3FA002000F0E0FA012000F0E7FA3D201B
:101FA00000F0BEFA0028FAD0059406942E2007907F
:101FB0001720089040F24E30099040F2F7100A9036
:101FC0004FF459700B9040F20D200C9001A800F0D6
:101FD000E1F810B010BD000030B591B02F20019095
:101FE00040F24E3002901820039040F2F710049017
:101FF00002240594FF200690002007900890099085
:102000000A9060020B9005200C9040F243600E9005
:10201000C01E0F904FF4F07010904FF050400D9094
:10202000144D01A9284600F017F9059412490D91A5
:102030004FF4C0610B9107210C910E4C01A9803423
:10204000204600F009F9012000F052F9012128464C
:1020500000F0F6F80121204600F0F2F8012000F02F
:1020600047F9064800F012F8012000F083F811B09B
:1020700030BD00008468014000B80BD02000002073
:10208000014A108051807047100000200149C8604B
:1020900070470000100000200649002804D00648C0
:1020A00048600120886070474FF050404860002031
:1020B000886070471000002000B80BD001490880EC
:1020C000704700001000002010B5094989680029F8
:1020D00008D00146074800F0B1F8BDE810400120E3
:1020E00000F006B901460348803800F0A7F8F4E78D
:1020F00010000020046901402DE9FC4101218020ED
:1021000000F076F94FF48064009401208DF804000B
:1021100000218DF806108DF807008DF805100C4F82
:1021200069463846FEF7B6FD6600009669463846B1
:10213000FEF7B0FDA500009569463846FEF7AAFDFA
:1021400003481830048006800580BDE8FC8100004B
:10215000001C02400649002804D0086840F0010035
:1021600008607047086820F00100086070470000B0
:10217000186801400649002804D0086840F48030FF
:1021800008607047086820F48030086070470000DD
:102190001868014030B5264A136826490B40136081
:1021A000038A1B04146845692C431C431460121DE8
:1021B00013680B401360038B1B041468C5692C4320
:1021C0001C431460121D13680B401360038C1B0426
:1021D0001468456A2C431C431460121D13680B409D
:1021E0001360018D09041368C46A23430B43136011
:1021F000111D0A68104B1A400A60D0E900231A43E7
:10220000D0E9023423431A430B681A430A60416B36
:102210000A02018E0B04064924310C6804F07F4445
:102220000C600C68806B134304431C430C6030BD8E
:102230000868014000F800F08F88FE0F4161704788
:10224000002904D0016841F0010101607047016874
:1022500021F001010160704770B58A88120443685B
:1022600003F4704343600B68134343608A8912048C
:10227000836803F4704383608B681343836002694F
:1022800022F0070202610A690261CA6913020A8C1C
:10229000120491F8244024068569002585618E6921
:1022A00022431E4316438661426922F0FF024261C7
:1022B0004A694261C26940F207739A43C261D1E937
:1022C0000A231A43C261826A85620A6B82620A8F9C
:1022D0001204C36A03F0E023C3624B6B1343C3626F
:1022E000026B6FF30A020263C96B016370BD0000E9
:1022F000014908607047000024680140FEE770470C
:1023000030B50F23C27801250178002A1FD0154A65
:10231000126802F4E062C2F5E062C2F30722C2F181
:102320000404D3404278A24084781C401443220124
:1023300001F1E02181F80024007800F01F018D40B8
:102340004009800000F1E020C0F8005130BD01F0EC
:102350001F0085404809800000F1E020C0F880514E
:1023600030BD00000CED00E002490843024908605E
:10237000704700000000FA050CED00E070B54FF664
:10238000FF70FFF765F900F055FD0024094D04EBDF
:10239000440005EBC00001698847641CE4B2122CBC
:1023A000F5D30549002008600871BDE87040FFF7CB
:1023B00085BE000058000020480000207047000043
:1023C000B0F5487F10D800290EDBB1F5F07F0BDCAB
:1023D00001EBC10202EB011100EB411003494A6815
:1023E00002EB4000098801807047000010000020C7
:1023F000054A002903D01168014311607047116834
:10240000814311607047000030380240054A0029BE
:1024100003D0116801431160704711688143116056
:102420007047000010380240054A002903D01168A7
:1024300001431160704711688143116070470000CB
:1024400038380240054A002903D011680143116061
:1024500070471168814311607047000040380240A6
:10246000054A002903D011680143116070471168C3
:1024700081431160704700004438024070B5244B1E
:10248000196801F00C01234C00291ED0224E0429AA
:102490001DD008291DD00460196801F0F001090958
:1024A0001E4A545C0168E14041601C6804F4E05439
:1024B000A40A145D21FA04F484601B6803F46043E9
:1024C0005B0BD25CD140C16070BD0460E4E7066084
:1024D000E2E70F4A121F1168C1F38055116801F03D
:1024E0003F0135B1B6FBF1F11468C4F388146143C0
:1024F00005E0B4FBF1F11468C4F388146143126879
:10250000C2F30142521C5200B1FBF2F10160C3E779
:10251000083802400024F40040787D0100000020CB
:1025200002460020510901290BD002290DD009498A
:10253000096802F01F02012393400B4200D00120E2
:102540007047044974390968F3E70249091F0968AB
:10255000EFE7000074380240034A116821F440316B
:1025600001431160704700008C3802400149086740
:102570007047000000004742800140EA01600249C4
:1025800040EA027008607047883802402DE9FC5F1D
:102590000121FC20FFF72CFF02208DF804008DF8AC
:1025A000050000208DF806008DF80700012000903E
:1025B0006946D148FEF76EFB0C220021CE48FEF79B
:1025C000A7FB022000906946CB48FEF763FB0C2274
:1025D0000121C948FEF79CFB042000906946C648CB
:1025E000FEF758FB0C220221C348FEF791FB08209E
:1025F00000906946C048FEF74DFB0C220321BE48FF
:10260000FEF786FB102700976946BB48FEF742FBA2
:102610000C220421B848FEF77BFB4FF02008CDF8D0
:1026200000806946B448FEF735FB0C220521B2480C
:10263000FEF76EFB4FF48059CDF800906946AE4826
:10264000FEF728FB0C221146AB48FEF761FB4FF466
:10265000005ACDF800A06946A748FEF71BFB0C22E4
:102660000D21A548FEF754FBBD0200956946A2481E
:10267000FEF710FB0C220E219F48FEF749FB6C0071
:10268000009469469C48FEF705FB0C220F219A48EE
:10269000FEF73EFB0120009069469848FEF7FAFAE3
:1026A0000C2200219548FEF733FB0220009069467A
:1026B0009248FEF7EFFA0C2201219048FEF728FB22
:1026C000009569468E48FEF7E5FA0C220E218C48EB
:1026D000FEF71EFB009469468948FEF7DBFA0C22E0
:1026E0000F218748FEF714FB0120009069468448BB
:1026F000FEF7D0FA0C2200218148FEF709FB0220E8
:10270000009069467E48FEF7C5FA0C2201217C48FC
:10271000FEF7FEFA4FF0800BCDF800B0694679481D
:10272000FEF7B8FA0C2207217648FEF7F1FAE61117
:10273000009669467348FEF7ADFA0C2208217148ED
:10274000FEF7E6FAA011009069466E48FEF7A2FA7D
:102750000C2209216B48FEF7DBFA601100906946F4
:102760006848FEF797FA0C220A216648FEF7D0FA6D
:102770002011009069466348FEF78CFA0C220B2169
:102780006048FEF7C5FACDF8009069465D48FEF74F
:1027900081FA0C2211465B48FEF7BAFACDF800A088
:1027A00069465848FEF776FA0C220D215548FEF787
:1027B000AFFA009569465348FEF76CFA0C220E21D9
:1027C0005048FEF7A5FA009469464E48FEF762FAB3
:1027D0000C220F214B48FEF79BFA009669464848A9
:1027E000FEF758FA0C2208214548FEF791FAA0118D
:1027F000009069464248FEF74DFA0C2209214048F4
:10280000FEF786FA6011009069463D48FEF742FAED
:102810000C220A213A48FEF77BFA402000903A4DFC
:1028200069462846FEF736FA0C2206212846FEF7AE
:102830006FFA009769463148FEF72CFA0C22042102
:102840002E48FEF765FACDF8008069462B48FEF762
:1028500021FA0C2205212948FEF75AFA012000909E
:102860002A4F69463846FEF715FA0C2200213846F1
:10287000FEF74EFA2011009069461F48FEF70AFA4B
:102880000C220B211C48FEF743FA009469461B48B2
:10289000FEF700FA0C220F211848FEF739FA0096CD
:1028A00069461648FEF7F6F90C2208211348FEF790
:1028B0002FFACDF800B069462846FEF7EBF90C2256
:1028C00007212846FEF724FA0220009069460D48A9
:1028D000FEF7E0F90C2201210A48FEF719FA01205F
:1028E000009069460748FEF7D5F90C2200210548FB
:1028F000FEF70EFABDE8FC9F0014024000180240EB
:10290000000C024000100240001C0240000802407F
:1029100000B593B0FFF73AFE01210846FFF784FDAA
:102920000220019007220292042103910492059053
:102930000690079001200890002009900A9110212C
:102940000B9140210C914FF4C0710D910E904FF4FA
:1029500000610F9110908800119001A8129008A8B2
:10296000FEF70CF900F002F813B000BD2DE9FF41AD
:102970000125009508260196029500240394202144
:102980000120FEF7CFF80028F9D16846FEF7E6F8F7
:102990000A2000F041F8022000900196029503946D
:1029A00020210120FEF7BEF80028F9D16846FEF785
:1029B000D5F8032000900196042702970394202164
:1029C0000120FEF7AFF80028F9D16846FEF7C6F8F7
:1029D00020210120FEF7A6F80028F9D16846FEF76D
:1029E000BDF840F231200097019602950390202116
:1029F0000120FEF797F80028F9D16846FEF7AEF8F7
:102A000040F26A50FEF73EF920210120FEF78AF8D5
:102A10000028F9D1BDE8FF8101B581B005490198D1
:102A20004843009002E00098401E00900098002863
:102A3000F9D10CBDA0860100002904D0018841F025
:102A4000400101807047018821F0400101807047FA
:102A50002DE9F04104460F4615460F4840260680F2
:102A6000032000F087F8C7F3074000F083F8C7F3AE
:102A7000072000F07FF8F8B200F07CF804E0FF20B7
:102A800000F078F804F8010B6D1EADB2F7D20248E1
:102A9000801E0680BDE8F0811A1402402DE9F04343
:102AA00087B001212020FFF7A3FC01210805FFF7D3
:102AB000D7FCDFF8B890052207214846FEF728F931
:102AC000052208214846FEF723F905220921484638
:102AD000FEF71EF98020009002258DF805508DF834
:102AE000045000248DF806408DF80740694648469A
:102AF000FEF7D0F8E801009069464846FEF7CAF8AC
:102B00004FF40078CDF8008069464846FEF7C2F8D9
:102B10004027009701268DF8046069464846FEF775
:102B2000B9F8124818300780ADF808404FF48270A9
:102B3000ADF80A00ADF80C40ADF80E50ADF81060DD
:102B4000ADF81280ADF81440ADF816400720ADF88E
:102B50001800074C02A9204600F04FF8012120463A
:102B6000FFF76AFF07B0BDE8F083000000140240E1
:102B7000005001402DE9F0410746184C4FF48055B4
:102B80002560174E09E02068411E216005D2002013
:102B900000F050F8C0B2BDE8F0810221304600F0EC
:102BA00021F80028EFD03946304600F024F825609F
:102BB00008E021684A1E226004D2012000F03AF8A1
:102BC000C0B2E8E70121304600F00CF80028F0D050
:102BD000304600F00EF8C0B2DDE7000050000020E3
:102BE000005001400246002012890A4200D0012014
:102BF0007047808970478181704730B5028802F440
:102C000041530A884C88CD8822438C882C43224328
:102C10000C8922434C8922438C892243CC8922434C
:102C20001A430280828B22F400628283098A018225
:102C300030BD000010B5014602A000F0F5FA0020FA
:102C400010BD00003C3C2D464C4153482D4552528E
:102C50004F522D3E3E2053504920B5C8B4FDB3AC71
:102C6000CAB1216572726F72436F6465203D202581
:102C7000640A00007047000010B58A07120F0F2386
:102C8000934021F003040649214401F608010C6831
:102C90009C430C600B68904003430B6010BD000028
:102CA000003001401CB50021019100912E4A1068AE
:102CB00040F4803010604FF4A043106800F40030FE
:102CC00000900198401C0190009810B9019898421A
:102CD000F3D11068800302D50120009000E000913C
:102CE000009801283FD120484030016841F08051D0
:102CF00001601E49086840F4404008601A480830E6
:102D000003680360036843F400430360036843F40B
:102D1000A0530360041F164B2360136843F08073B5
:102D2000136013689B01FCD50A6842F480320A6084
:102D30004A68D203FCD50A6842F400320A604A6845
:102D40009203FCD50B4A40F205711160016821F035
:102D500003010160016841F0020101600168C1F3F3
:102D600081010229FAD11CBD0038024000700040E8
:102D7000195A4007003C02407047000010B5124845
:102D8000016841F4700101601048016841F00101DF
:102D900001600E4A00210832116002680C4B1A4093
:102DA0000260031D0B4A1A60026822F4802202604E
:102DB00006480C300160FFF775FF03494FF00060D3
:102DC0008039086010BD000088ED00E00038024046
:102DD000FFFFF6FE103000242DE9F04105460E46B7
:102DE0000024134F04EB440207EBC2008188A94280
:102DF00010D3C188B1420DD34188B1420AD837F807
:102E00003210A94206D8017B59B901210173016929
:102E1000884706E0017B012903D100210173016984
:102E20008847641CE4B2122CDCD3BDE8F0810000BA
:102E3000580000202DE9F04FA348002120F8D01CB5
:102E400020F8CE1C5A2120F8CC1C322520F8CA5C70
:102E5000002240F8C82C00F8C42C9C4A40F8C02C32
:102E60009B4B40F8BC3C002420F8B84C20F8B65CE2
:102E700020F8B41C642620F8B26C46F20C3440F8FA
:102E8000B04C002400F8AC4C40F8A82C40F8A43C0E
:102E900020F8A04C20F89E6C20F89C1C962720F867
:102EA0009A7C1F2440F8984C002400F8944C40F879
:102EB000902C40F88C3C20F8884C20F8867C20F838
:102EC000841C4FF0C80C20F882CC102440F8804CB1
:102ED000002400F87C4C40F8782C40F8743C20F832
:102EE000704C20F86ECC20F86C1C4FF0FA0820F8DB
:102EF0006A8C4FF4784440F8684C002400F8644C25
:102F000040F8602C40F85C3C20F8584C20F8568C77
:102F100020F8541C4FF4967920F8529C4FF61F0469
:102F200040F8504C002400F84C4C40F8482C40F835
:102F3000443C20F8404C20F83E9C20F83C1C4FF4C8
:102F4000AF7A20F83AAC4FF4FC6440F8384C0024D7
:102F500000F8344C40F8302C40F82C3C20F8284C39
:102F600020F826AC20F8241C4FF4C87B20F822BCA3
:102F700040F2FF7440F8204C002400F81C4C40F84C
:102F8000182C40F8143C002220F8102C20F80EBC1D
:102F900020F80C1C4FF4F07E20F80AEC4DF6FB6292
:102FA00040F8082C002200F8042C4A4A02604A4AE1
:102FB0004260018100224281B4228281C5810023C6
:102FC00003610375454B8361454CC46101844584AD
:102FD0008284C68401258562002580F82C50036315
:102FE0004463018746878287C787022505640025D9
:102FF00080F844508364C464A0F85010A0F8527064
:10300000A0F85420A0F856C003258565002580F857
:103010005C5003664466A0F86810A0F86AC0A0F887
:103020006C20A0F86E8004250567002580F8745098
:103030008367C467A0F88010A0F88280A0F884207D
:10304000A0F886900525C0F88850002580F88C509F
:10305000C0F89030C0F89440A0F89810A0F89A906A
:10306000A0F89C20A0F89EA00625C0F8A05000253E
:1030700080F8A450C0F8A830C0F8AC40A0F8B01058
:10308000A0F8B2A0A0F8B420A0F8B6B00725C0F808
:10309000B850002580F8BC50C0F8C030C0F8C4401B
:1030A000A0F8C810A0F8CAB0A0F8CC20A0F8CEE0D4
:1030B0000821C0F8D010002180F8D410C0F8D83012
:1030C000C0F8DC40BDE8F08F28010020DD050008D5
:1030D0002D03000805050008F50200084906000850
:1030E0001503000870B503460020124D00EB4002A6
:1030F00005EBC204A6889E4217D935F832209A42C1
:1031000013D2E2888A4210D962888A420DD200EB3B
:10311000400005EBC000002101732169204688476B
:1031200020466169BDE870400847401CC0B21228C3
:10313000DCD370BD58000020002904D0818941F4FF
:10314000005181817047818921F40051818170474C
:103150000246002012880A4200D001207047000079
:103160007FB504460D46208A20F44051E888084384
:103170002082A08941F20C618843A9882A891143E1
:103180006A8902431143A181A08A20F44071A88971
:103190000843A0826846FFF771F91E48844202D0B6
:1031A0001D48844201D1039800E00298A1890904D6
:1031B00008D500EBC00101EB001029684900B0FB05
:1031C000F1F007E000EBC00101EB00102968890075
:1031D000B0FBF1F06422B0FBF2F109010B096FF0D2
:1031E00018056B4300EB8300A3891D044FF03203E5
:1031F00007D503EBC000B0FBF2F000F00700084376
:1032000006E003EB0010B0FBF2F000F00F00084303
:1032100020817FBD0010014000140140C1F308016E
:1032200081807047FEE700000FB4054B10B503A97D
:10323000044A029800F018F810BC5DF814FB000076
:10324000CD3600085400002002E008C8121F08C153
:10325000002AFAD170477047002001E001C1121F17
:10326000002AFBD1704700002DE9FF4F8DB00F46BB
:103270000546002606E025280BD0DDE90F12904711
:103280006D1C761C28780028F5D111B03046BDE8B9
:10329000F08F0024A246A1460122EC4900E004433D
:1032A00015F8013F203B02FA03F00842F7D12878D5
:1032B0002A2810D06FF02F022878A0F130010929B8
:1032C00014D80AEB8A0102EB410144F0020400EB3E
:1032D000010A6D1CF0E701CF5FEA000A03D544F450
:1032E0000054CAF1000A44F002046D1C28782E280C
:1032F00017D115F8010F44F004042A280ED06FF0FE
:103300002F022878A0F1300109290AD809EB890198
:1033100002EB410100EB01096D1CF2E757F8049B39
:103320006D1C28786C280FD006DC4C2817D0682834
:103330000DD06A2814D104E0742810D07A280FD157
:103340000DE044F400140AE044F4801401E044F475
:1033500040146978814202D104F580146D1C6D1C03
:103360002A786E2A1FD00CDC632A31D004DC002AB4
:103370008BD0582A11D1A3E0642A68D0692A0CD1D5
:1033800065E0732A2ED004DC6F2A73D0702A04D132
:103390009BE0752A6FD0782A6ED01046DDE90F12B7
:1033A0009047761C50E1C4F30250022806D003284F
:1033B00009D0042801CF09D0066045E101CFF117FB
:1033C000C0E9006140E101CF06803DE106703BE1CC
:1033D00017F8040B8DF8000000208DF80100EB4673
:1033E000012003E057F804BB4FF0FF3061074FF0B6
:1033F000000102D40DE008F10101884649450FDAC9
:103400008045F8DB1BF808100029F4D108E008F12A
:10341000010188468142FADB1BF808100029F6D129
:10342000DDE90F23AAEB08008146214600F036F9BA
:10343000304400EB080604E0DDE90F121BF8010B35
:103440009047B8F10108F7D221464846F7E00A2133
:10345000C4F302534FF0000B0891022B04D001CFAC
:10346000C117032B09D00AE0FF1D27F00707F7E873
:10347000020108E032E01FE020E000B2C117042B97
:1034800001D140B2C117031E71F1000307DA4FF0FA
:10349000000CD0EB0C006CEB01012D2302E02305A6
:1034A00004D52B238DF82430012303E0E30701D05A
:1034B0002023F7E7984658E00A2110E010210EE09B
:1034C00010204FF0000B08900CE010214FF0000B83
:1034D00044F004044FF00809089103E008214FF07C
:1034E000000B0891C4F30253022B04D001CF00213A
:1034F000032B06D006E0FF1D27F00707F7E80201BF
:1035000003E080B2042B00D1C0B24FF000082307C3
:103510002BD5702A07D0DDF820C08CF0100C5CEAA7
:103520000B0C05D00EE040238DF82430012308E079
:1035300050EA010306D030238DF824308DF8252081
:1035400002239846DDF820C08CF0080C5CEA0B0CD6
:103550000BD150EA010301D1630706D530238DF862
:1035600024304FF00108A9F10109582A04D038A2EB
:103570000B9208AA0A920BE03AA2F9E75B46089A76
:10358000FCF754FE0B9B9B5C0A9A521E0A92137026
:1035900050EA0102F2D10A98ADEB000000F1200BD5
:1035A000600702D524F4803401E04FF00109D945C9
:1035B00002DDA9EB0B0000E0002000EB0B01414411
:1035C0000890AAEB010AE00306D4DDE90F232146A7
:1035D000504600F063F806444FF0000908E009A9DE
:1035E00011F80900DDE90F12904709F10109761C75
:1035F000C145F4DBE0030CD5DDE90F23214650463D
:1036000000F04CF8064404E0DDE90F12302090474A
:10361000761C0899481E08900029F5DC08E00A98F5
:103620000A990078491C0A91DDE90F129047761C2F
:10363000BBF10001ABF1010BF1DC21465046DDE9A5
:103640000F2300F019F806446D1C1BE60928010041
:103650003031323334353637383961626364656608
:1036600000000000303132333435363738394142CA
:1036700043444546000000002DE9F0410446002582
:103680001E461746880404D405E039462020B0477A
:103690006D1C641EF9D52846BDE8F0812DE9F04186
:1036A000044600251E469046C80301D5302700E099
:1036B0002027880404D505E041463846B0476D1CF4
:1036C000641EF9D52846BDE8F081000070B50446B7
:1036D000064DE1B22846FFF7A1FD80212846FFF7FD
:1036E00037FD0028F9D0204670BD000000100140D1
:1036F00010B50C4C20212046FDF721FB00F014F8FA
:1037000010212046FDF71DFB00F00EF81021204689
:10371000FDF715FB00F008F82046BDE81040202119
:10372000FDF70FBB001C02400020401CC0B2322835
:10373000FBD3704710B50A4C20212046FDF701FB52
:10374000FFF7F2FF10212046FDF7FBFAFFF7ECFF31
:1037500010212046FDF7F3FABDE81040FFF7E4BF63
:10376000001C024070B5002400250E4E6006040EB9
:1037700010213046FDF7E5FAFFF7D6FF202130464D
:10378000FDF7D6FA08B1641CE4B210213046FDF70B
:10379000D6FAFFF7C9FF6D1CEDB2082DE6D320461F
:1037A00070BD0000001C024070B505460024134E99
:1037B000280604D520213046FDF7C3FA03E0202176
:1037C0003046FDF7BCFAFFF7AFFF10213046FDF79A
:1037D000B8FAFFF7A9FF10213046FDF7B0FA072C21
:1037E00003D120213046FDF7ACFA6806050EFFF73D
:1037F0009BFF641CE4B2082CDAD370BD001C0240AD
:1038000010B50C4C20212046FDF79BFA10212046D4
:10381000FDF797FAFFF788FF20212046FDF78FFA82
:10382000FFF782FF10212046FDF789FABDE810401E
:10383000FFF77ABF001C024010B5084C202120463B
:10384000FDF77DFA10212046FDF77BFAFFF76CFFAC
:103850002046BDE810402021FDF773BA001C02404D
:1038600070B50E4D20212846FDF76BFAFFF75CFF7F
:1038700010212846FDF765FAFFF756FF202128465C
:10388000FDF756FA08B1012400E000241021284673
:10389000FDF755FAFFF748FF204670BD001C0240B7
:1038A000FEF72AFCFCF7D0FD11A0FFF7BDFCFDF7E9
:1038B00039FBFEF753FBFEF78FFB0120FEF74AFCB6
:1038C0000020FEF7E9FB4FF400442046FDF7C0FE60
:1038D0000120FEF7E1FBFF20FEF7F6FB2046FDF797
:1038E000B7FEFEF74BFD40F6FF70FCF7F9FDFEE773
:1038F0000D0AD2B0BBF053544D334634323920B4A4
:10390000A5C3FEBBADB0E5B2E2CAD4C0FDB3CC0DD9
:103910000A0000000000000000000000000000009D
:103920000000000000000000000000000000000097
:103930000000000000000000000000000000000087
:1039400000000000000080018001800180018001F2
:10395000800180018001800180018001800180015F
:103960000000000080018001000000000000000055
:103970000000000000000000CC00CC00CC00CC0017
:10398000CC00CC000000000000000000000000009F
:103990000000000000000000000000000000000027
:1039A0000000000000000000000000000000000017
:1039B000600C600C600C30063006FE1FFE1F3006E7
:1039C00038071803FE1FFE1F180318038C018C0113
:1039D0008C01000000008000E003F80F9C0E8C1C9E
:1039E0008C188C009800F801E007800E801C8C1861
:1039F0008C189C18B80CF00FE003800080000000C9
:103A0000000000000000000000000E181B0C110C4C
:103A100011061106110311039B018E01C038C06C01
:103A200060446044304430441844186C0C38000042
:103A3000000000000000E001F00338071806180637
:103A40003003F001F000F8009C310E33061E061C16
:103A5000061C063FFC73F02100000000000000007F
:103A600000000000000000000C000C000C000C0026
:103A70000C000C000000000000000000000000002E
:103A80000000000000000000000000000000000036
:103A9000000000000000000200038001C000C00020
:103AA0006000600030003000300030003000300036
:103AB0003000300060006000C000C00080010003E2
:103AC00000020000000020006000C00080018001B2
:103AD00000030003000600060006000600060006BC
:103AE000000600060003000380018001C0006000A2
:103AF00020000000000000000000000000000000A6
:103B0000C000C000D806F807E00130033807000005
:103B100000000000000000000000000000000000A5
:103B20000000000000000000000000000000000095
:103B300080018001800180018001FC3FFC3F800109
:103B40008001800180018001000000000000000071
:103B50000000000000000000000000000000000065
:103B60000000000000000000000000000000000055
:103B700000000000000080018001000100018000C1
:103B80000000000000000000000000000000000035
:103B9000000000000000000000000000E007E00757
:103BA0000000000000000000000000000000000015
:103BB0000000000000000000000000000000000005
:103BC00000000000000000000000000000000000F5
:103BD000000000000000C000C00000000000000065
:103BE000000000000000000C000C000600060006AB
:103BF0000003000300038003800180018001C000F6
:103C0000C000C00060006000000000000000000074
:103C1000000000000000E003F007380E180C0C183C
:103C20000C180C180C180C180C180C180C180C1874
:103C3000180C380EF007E003000000000000000040
:103C400000000000000000018001C001F0019801A7
:103C50008801800180018001800180018001800154
:103C60008001800180018001000000000000000050
:103C7000000000000000E003F80F180C0C180C18EE
:103C800000180018000C000600038001C00060004E
:103C900030001800FC1FFC1F0000000000000000A6
:103CA000000000000000E001F807180E0C0C0C0CDE
:103CB000000C0006C003C007000C001800180C1808
:103CC0000C18180CF807E0030000000000000000CA
:103CD000000000000000000C000E000F000F800D1F
:103CE000C00C600C600C300C180C0C0CFC3FFC3F42
:103CF000000C000C000C000C000000000000000094
:103D0000000000000000F80FF80F180018000C0069
:103D1000EC03FC071C0E001C0018001800180C18FF
:103D20001C0C180EF807E003000000000000000063
:103D3000000000000000C007F00F381C1818180021
:103D40000C00CC03EC0F3C0E1C1C0C180C180C18AF
:103D5000181C380EF007E00300000000000000000F
:103D6000000000000000FC1FFC1F000C0006000605
:103D7000000380038001C001C000E000600060001B
:103D80007000300030003000000000000000000033
:103D9000000000000000E003F007380E180C180CBB
:103DA000180C3806F007F007180C0C180C180C1833
:103DB0000C18380CF80FE0030000000000000000B1
:103DC000000000000000E003F007380E1C0C0C1887
:103DD0000C180C181C1C381EF81BE0190018000CDD
:103DE000000C1C0EF807F0010000000000000000AD
:103DF00000000000000000000000000000000000C3
:103E000080018001000000000000000000000000B0
:103E100000000000800180010000000000000000A0
:103E20000000000000000000000000000000000092
:103E30008001800100000000000000000000000080
:103E400000000000800180010001000180000000EE
:103E50000000000000000000000000000000000062
:103E6000000000000010001C800FE003F8001800A4
:103E7000F800E003800F001C0010000000000000AC
:103E80000000000000000000000000000000000032
:103E900000000000F81F000000000000F81F0000F4
:103EA0000000000000000000000000000000000012
:103EB0000000000000000000000000000000000002
:103EC0000000000008003800F001C007001F0018C3
:103ED000001FC007F00138000800000000000000CB
:103EE000000000000000E003F80F180C0C180C187C
:103EF0000018000C000600038001C000C000C000D4
:103F000000000000C000C000000000000000000031
:103F10000000000000000000E00718180420C2297B
:103F2000224A114409440944094409221113E20CAC
:103F3000024004201818E007000000000000000004
:103F400000000000000080038003C006C006C00619
:103F5000600C600C301830183018F83FF83F1C70B7
:103F60000C600C6006C006C00000000000000000ED
:103F7000000000000000FC03FC0F0C0C0C180C18D7
:103F80000C180C0CFC07FC0F0C180C300C300C300F
:103F90000C300C18FC1FFC070000000000000000A3
:103FA000000000000000C007F01F38381C300C7003
:103FB0000660060006000600060006000600066011
:103FC0000C701C30F01FE007000000000000000033
:103FD000000000000000FE03FE0F060E0618061883
:103FE0000630063006300630063006300630061839
:103FF0000618060EFE0FFE03000000000000000081
:10400000000000000000FC3FFC3F0C000C000C0016
:104010000C000C00FC1FFC1F0C000C000C000C0022
:104020000C000C00FC3FFC3F000000000000000002
:10403000000000000000F83FF83F180018001800CA
:1040400018001800F81FF81F1800180018001800B2
:104050001800180018001800000000000000000000
:10406000000000000000E00FF83F3C780E6006E022
:1040700007C00300030003FE03FE03C007C006C021
:104080000EC03CF0F83FE00F000000000000000010
:104090000000000000000C300C300C300C300C30F4
:1040A0000C300C30FC3FFC3F0C300C300C300C3032
:1040B0000C300C300C300C30000000000000000010
:1040C000000000000000800180018001800180016B
:1040D00080018001800180018001800180018001D8
:1040E00080018001800180010000000000000000CC
:1040F00000000000000000060006000600060006A2
:104100000006000600060006000600060006180667
:1041100018063807F003E00100000000000000006E
:1041200000000000000006300618060C0606060314
:104130008601C60066007600DE008E0106030606D4
:10414000060C0618063006600000000000000000A3
:1041500000000000000018001800180018001800E7
:10416000180018001800180018001800180018008F
:1041700018001800F81FF81F0000000000000000E1
:104180000000000000000EE01EF01EF01EF036D809
:1041900036D836D836D866CC66CC66CCC6C6C6C647
:1041A000C6C6C6C686C386C3000000000000000065
:1041B0000000000000000C301C303C303C306C3003
:1041C0006C30CC30CC308C310C330C330C360C369C
:1041D0000C3C0C3C0C380C300000000000000000CF
:1041E000000000000000E007F81F1C380E70066099
:1041F00003C003C003C003C003C003C003C0066004
:104200000E701C38F81FE0070000000000000000DE
:10421000000000000000FC0FFC1F0C380C300C30BC
:104220000C300C300C18FC1FFC070C000C000C00B0
:104230000C000C000C000C0000000000000000004E
:10424000000000000000E007F81F1C380E70066038
:1042500003E003C003C003C003C003C007E006635C
:104260000E3F1C3CF83FE0F700C0000000000000DB
:10427000000000000000FE0FFE1F0638063006306A
:1042800006300638FE1FFE0706030606060C061853
:10429000061806300630066000000000000000002E
:1042A000000000000000E003F80F1C0C0C180C18B4
:1042B0000C001C00F803E00F001E0038063006302A
:1042C0000E301C1CF80FE00700000000000000008A
:1042D000000000000000FE7FFE7F80018001800161
:1042E00080018001800180018001800180018001C6
:1042F00080018001800180010000000000000000BA
:104300000000000000000C300C300C300C300C3081
:104310000C300C300C300C300C300C300C300C30BD
:104320000C301818F81FE007000000000000000023
:1043300000000000000003600630063006300C1854
:104340000C180C18180C180C380E300630067007B4
:1043500060036003C001C001000000000000000015
:104360000000000000000360C361C361C3616633E5
:10437000663366336633663366336C1B6C1B6C1BAB
:104380002C1A3C1E380E380E000000000000000001
:104390000000000000000FE00C7018303018700CA6
:1043A000600EC00780038003C003E006700C301C61
:1043B00018180C300E6007E000000000000000003C
:1043C00000000000000003C006600C301C383818E4
:1043D000300C6006E007C00380018001800180018D
:1043E00080018001800180010000000000000000C9
:1043F000000000000000FC7FFC7F0060003000181F
:10440000000C000600038001C000600030001800AE
:104410000C000600FE7FFE7F000000000000000090
:10442000000000000000E003E003600060006000A6
:10443000600060006000600060006000600060007C
:104440006000600060006000600060006000E003E9
:10445000E0030000000030003000600060006000F9
:10446000C000C000C000C0018001800180010003C5
:10447000000300030006000600000000000000002A
:10448000000000000000E003E0030003000300035D
:104490000003000300030003000300030003000304
:1044A0000003000300030003000300030003E00314
:1044B000E003000000000000C001C00160036003D1
:1044C000600330063006180C180C000000000000D5
:1044D00000000000000000000000000000000000DC
:1044E00000000000000000000000000000000000CC
:1044F00000000000000000000000000000000000BC
:10450000000000000000FFFFFFFF000000000000AF
:104510000000000000000C000C000C000C000C005F
:104520000C0000000000000000000000000000007F
:10453000000000000000000000000000000000007B
:10454000000000000000000000000000000000006B
:10455000F003F8071C0C0C0C000FF00FF80C0C0CFF
:104560000C0C1C0FF80FF0180000000000000000F9
:1045700000000000000018001800180018001800C3
:10458000D803F80F380C1818181818181818181815
:104590001818380CF80FD8030000000000000000C5
:1045A000000000000000000000000000000000000B
:1045B000C003F007300E180C18001800180018007F
:1045C000180C300EF007C0030000000000000000CF
:1045D0000000000000000018001800180018001863
:1045E000C01BF01F301C18181818181818181818A5
:1045F0001818301CF01FC01B000000000000000055
:1046000000000000000000000000000000000000AA
:10461000C003F00F300C1818F81FF81F180018000E
:104620003818301CF00FC007000000000000000028
:10463000000000000000800FC00FC000C000C000DC
:10464000F007F007C000C000C000C000C000C000FC
:10465000C000C000C000C00000000000000000005A
:10466000000000000000000000000000000000004A
:10467000E00DF80F180E0C0C0C0C0C0C0C0C0C0CA8
:104680000C0C180EF80FE00D000C0C0C1C06F807B3
:10469000F0010000000018001800180018001800B1
:1046A000D807F80F381C18181818181818181818E0
:1046B000181818181818181800000000000000003A
:1046C000000000000000C000C0000000000000006A
:1046D000C000C000C000C000C000C000C000C000DA
:1046E000C000C000C000C0000000000000000000CA
:1046F000000000000000C000C0000000000000003A
:10470000C000C000C000C000C000C000C000C000A9
:10471000C000C000C000C000C000C000C000F80061
:104720007800000000000C000C000C000C000C00D5
:104730000C0C0C060C038C01CC006C00FC009C01E2
:104740008C030C030C060C0C0000000000000000A1
:10475000000000000000C000C000C000C000C00099
:10476000C000C000C000C000C000C000C000C00049
:10477000C000C000C000C000000000000000000039
:104780000000000000000000000000000000000029
:104790007C3CFF7EC7E383C183C183C183C183C1E6
:1047A00083C183C183C183C10000000000000000F9
:1047B00000000000000000000000000000000000F9
:1047C0009807F80F381C18181818181818181818FF
:1047D0001818181818181818000000000000000019
:1047E00000000000000000000000000000000000C9
:1047F000C003F00F300C18181818181818181818CB
:104800001818300CF00FC00300000000000000007A
:104810000000000000000000000000000000000098
:10482000D803F80F380C1818181818181818181872
:104830001818380CF80FD8031800180018001800C2
:104840001800000000000000000000000000000050
:10485000C01BF01F301C1818181818181818181832
:104860001818301CF01FC01B001800180018001882
:104870000018000000000000000000000000000020
:10488000B007F0037000300030003000300030001E
:104890003000300030003000000000000000000058
:1048A0000000000000000000000000000000000008
:1048B000E003F003380E180C3800F003C007000CBA
:1048C000180C380EF007E0030000000000000000A4
:1048D00000000000000000008000C000C000C00018
:1048E000F007F007C000C000C000C000C000C0005A
:1048F000C000C000C00780070000000000000000EA
:1049000000000000000000000000000000000000A7
:104910001818181818181818181818181818181817
:104920001818381CF01FE0190000000000000000FB
:104930000000000000000000000000000000000077
:104940000C18180C180C180C3006300630066003D2
:1049500060036003C001C00100000000000000000F
:104960000000000000000000000000000000000047
:10497000C141C141C36163636363636336363636E5
:1049800036361C1C1C1C1C1C000000000000000013
:104990000000000000000000000000000000000017
:1049A0001C38381C300C6006600360036003600331
:1049B0006006300C381C1C380000000000000000AD
:1049C00000000000000000000000000000000000E7
:1049D0001830301830187018600C600CE00CC006ED
:1049E000C00680038003800380018001C001F000C5
:1049F0007000000000000000000000000000000047
:104A0000FC1FFC1F000C000600038001C0006000BA
:104A100030001800FC1FFC1F000000000000000018
:104A200000000000000000038001C000C000C000C2
:104A3000C000C000C00060006000300060004000A6
:104A4000C000C000C000C000C000C0008001000362
:104A500000000000000080018001800180018001D1
:104A6000800180018001800180018001800180013E
:104A7000800180018001800180018001800180012E
:104A80008001000000006000C000C00180018001C2
:104A90008001800180010003000300060003000183
:104AA000800180018001800180018001C0006000E0
:104AB00000000000000000000000000000000000F6
:104AC00000000000F010F81F080F000000000000B8
:104AD00000000000000000000000000000000000D6
:104AE00000000000814E000081580000814000005D
:104AF0000000000080500000000000003C3C2D47FA
:104B000054502D4552524F522D3E3E2049324320A3
:104B1000526561643A203078253034582C20256461
:104B2000206279746573206661696C65642C206508
:104B30007272636F64653A202564212050726F633E
:104B40006573732072657365742E0A003C3C2D47B3
:104B500054502D4552524F522D3E3E204932432053
:104B600057726974653A203078253034582C2025E6
:104B700064206279746573206661696C65642C20B9
:104B8000657272636F64653A202564212050726FEC
:104B9000636573732072657365742E0A00000000EC
:104BA000C04B0008000000205800000048320008F8
:104BB000184C000858000020B005000058320008CA
:104BC00000000000010203040102030406070809B3
:104BD0000000FFFF000000D0000000000000000007
:104BE0001439000810001800000000000000000048
:104BF00000000000FFFFFFFFFFFFFFFFFFFFFFFFC1
:104C0000FFFFFFFFFFFFFFFF0000000000000000AC
:084C100000A0000000000000FC
:04000005080001AD41
:00000001FF
